:020000040800F2
:100000001808002089010008E1010008E10100084A
:10001000E1010008E1010008E10100080000000022
:10002000000000000000000000000000E1010008E6
:10003000E101000800000000E1010008E101000802
:10004000E1010008E1010008E1010008E101000808
:10005000E1010008E1010008E1010008E1010008F8
:10006000E1010008E1010008E1010008E1010008E8
:10007000E1010008E1010008E1010008E1010008D8
:10008000E1010008E1010008E1010008E1010008C8
:10009000E1010008E1010008E1010008E1010008B8
:1000A000E1010008E1010008E1010008E1010008A8
:1000B000E1010008E1010008E1010008E101000898
:1000C000E1010008E1010008E1010008E101000888
:1000D000E1010008E1010008E1010008E101000878
:1000E000E1010008E1010008E1010008E101000868
:1000F000E1010008E1010008E1010008E101000858
:10010000E1010008E1010008E1010008E101000847
:10011000E1010008E1010008E1010008E101000837
:10012000E1010008E1010008E1010008E101000827
:10013000E1010008E1010008E1010008E101000817
:10014000E1010008E1010008E1010008E101000807
:10015000E1010008E1010008E1010008E1010008F7
:10016000E1010008E1010008E1010008E1010008E7
:10017000E1010008E1010008E1010008E1010008D7
:10018000E1010008E101000880B582B000AF0F4B2B
:100190007B600F4B3B6007E03B681A1D3A607A6852
:1001A000111D796012681A603B680A4A9342F3D3C2
:1001B00009480A494FF000028842B8BF40F8042BB2
:1001C000FADB00F02FF90837BD4680BDA810000803
:1001D0000000002014000020140000201400002063
:1001E00080B400AFFEE700BF80B500AF00F0FAFCBE
:1001F00000F024FD0820012100F0E2FB1020012185
:1002000000F0DEFB0120012100F0DAFB80BD00BF21
:1002100080B588B000AF0420012100F0EFFB07F1AA
:1002200014031748194600F0FFFD4BF29833BB61E9
:100230000623BB820023BB830023FB8207F1140348
:100240000F48194600F0F0FD60233B8001237B80BE
:100250000023BB600023BB813B460948194600F0E0
:100260008DFE0748082100F003FF0548012100F03A
:1002700045FE0348012100F061FE2037BD4680BDE8
:100280000008004080B584B000AF0820012100F0D4
:10029000B5FB3B1D0E48194600F0C6FD40F6C313E2
:1002A000BB6042F2CF03BB800023BB810023FB80F5
:1002B0003B1D0748194600F0B7FD0548012100F035
:1002C0001DFE0348012100F039FE1037BD4680BDF8
:1002D000000C004080B582B000AF4FF470433B602B
:1002E00002233B710023BB7103237B710023FB714D
:1002F0003B460D48194600F09FFB0B480C2102229B
:1003000000F028FC08480D21022200F023FC0648DA
:100310000E21022200F01EFC03480F21022200F0F1
:1003200019FC0837BD4680BD000C024080B483B084
:1003300000AF78600B467B80074A7B68D362064A31
:100340007B881385044A7B685B0853630C37BD4682
:100350005DF8047B704700BF0008004080B400AF28
:10036000074B4FF21862DA62054B5A221A85044B8A
:100370004FF218625A63BD465DF8047B704700BFB8
:100380000008004080B485B000AF786002E0FB68F0
:100390000133FB60064B5A6A7B689A42F7D3044BE1
:1003A00000225A621437BD465DF8047B704700BFD7
:1003B000000C004080B582B000AF78607B68012BF4
:1003C00004D14BF298300621FFF7B0FF7B68022B77
:1003D00004D145F224600C21FFF7A8FF7B68032BB2
:1003E00004D140F29C708221FFF7A0FF7B68042BB0
:1003F00004D140F23A708121FFF798FF7B68052B0A
:1004000004D140F23A707321FFF790FF7B68B3F19B
:10041000FF3F04D140F23A70CB21FFF787FF083746
:10042000BD4680BD80B586B000AFFFF7DDFEFFF7AB
:10043000EFFEFFF727FFFFF74DFF0C4B40F69F72D3
:10044000DA620A4B42F2CF021A85084B40F69F72DD
:100450005A63064BDB6A7B617B695B083B617B69A6
:100460009B08FB607B69DB08BB6001E0000C00407F
:100470000320FFF79FFFF868FFF784FFFFF76EFF89
:10048000B868FFF77FFF0320FFF794FFF868FFF7D6
:1004900079FFFFF763FFB868FFF774FF0420FFF7E9
:1004A00089FFF868FFF76EFFFFF758FFB868FFF79E
:1004B00069FF0520FFF77EFFF868FFF763FFFFF78E
:1004C0004DFFB868FFF75EFF0520FFF773FFF86880
:1004D000FFF758FFFFF742FFB868FFF753FF04200C
:1004E000FFF768FFF868FFF74DFFFFF737FFB868C1
:1004F000FFF748FF0320FFF75DFFF868FFF742FFB3
:10050000FFF72CFFB868FFF73DFF0220FFF752FF0F
:10051000F868FFF737FFFFF721FFB868FFF732FFF2
:100520000120FFF747FFF868FFF72CFFFFF716FFE2
:10053000B868FFF727FF0120FFF73CFFF868FFF7D7
:1005400021FFFFF70BFFB868FFF71CFF0220FFF742
:1005500031FFF868FFF716FFFFF700FFB868FFF7F5
:1005600011FF0320FFF726FFF868FFF70BFFFFF7E7
:10057000F5FEB868FFF706FF0320FFF71BFFF868DA
:10058000FFF700FFB868FFF7FDFEFFF7E7FEB8686A
:10059000FFF7F8FE0220FFF70DFFB868FFF7F2FE45
:1005A000FFF7DCFEB868FFF7EDFE0220FFF702FF61
:1005B0003869FFF7E7FEFFF7D1FEB868FFF7E2FE04
:1005C0000320FFF7F7FEF868FFF7DCFEFFF7C6FE33
:1005D000B868FFF7D7FE0320FFF7ECFEF868FFF7D7
:1005E000D1FEFFF7BBFEB868FFF7CCFE0420FFF793
:1005F000E1FEF868FFF7C6FEFFF7B0FEB868FFF748
:10060000C1FE0520FFF7D6FEF868FFF7BBFEFFF737
:10061000A5FEB868FFF7B6FE0520FFF7CBFEF86829
:10062000FFF7B0FEFFF79AFEB868FFF7ABFE0420B5
:10063000FFF7C0FEF868FFF7A5FEFFF78FFEB8686A
:10064000FFF7A0FE0320FFF7B5FEF868FFF79AFE5C
:10065000FFF784FEB868FFF795FE0220FFF7AAFEB9
:10066000F868FFF78FFEFFF779FEB868FFF78AFE9C
:100670000120FFF79FFEF868FFF784FEFFF76EFE8C
:10068000B868FFF77FFE0120FFF794FEF868FFF7D8
:1006900079FEFFF763FEB868FFF774FE0220FFF7EC
:1006A00089FEF868FFF76EFEFFF758FEB868FFF79F
:1006B00069FE0320FFF77EFEF868FFF763FEFFF791
:1006C0004DFEB868FFF75EFE0320FFF773FEF86883
:1006D000FFF758FEB868FFF755FEFFF73FFEB86812
:1006E000FFF750FE0120FFF765FEB868FFF74AFEEE
:1006F000FFF734FEB868FFF745FE0120FFF75AFE0A
:100700003869FFF73FFEFFF729FEB868FFF73AFEAA
:100710000220FFF74FFEF868FFF734FEFFF71EFEDA
:10072000B868FFF72FFE0220FFF744FEF868FFF7D6
:1007300029FEFFF713FEB868FFF724FE0320FFF73A
:1007400039FEF868FFF71EFEFFF708FEB868FFF7EE
:1007500019FE0120FFF72EFEF868FFF713FEFFF7E2
:10076000FDFDB868FFF70EFE0220FFF723FEF868D4
:10077000FFF708FEFFF7F2FDB868FFF703FE03205E
:10078000FFF718FEB868FFF7FDFDFFF7E7FDB86853
:10079000FFF7F8FD0420FFF70DFEB868FFF7F2FD44
:1007A000FFF7DCFDB868FFF7EDFD0320FFF702FE61
:1007B000F868FFF7E7FDFFF7D1FDB868FFF7E2FD46
:1007C0000120FFF7F7FDF868FFF7DCFDFFF7C6FD36
:1007D000B868FFF7D7FD0220FFF7ECFDF868FFF7D8
:1007E000D1FDFFF7BBFDB868FFF7CCFD0320FFF795
:1007F000E1FDB868FFF7C6FDFFF7B0FDB868FFF789
:10080000C1FD0420FFF7D6FDB868FFF7BBFDFFF779
:10081000A5FDB868FFF7B6FD0320FFF7CBFDF8682C
:10082000FFF7B0FDFFF79AFDB868FFF7ABFD0220B8
:10083000FFF7C0FDF868FFF7A5FDFFF78FFDB8686B
:10084000FFF7A0FD0120FFF7B5FDF868FFF79AFD5F
:10085000FFF784FDB868FFF795FD0220FFF7AAFDBA
:10086000F868FFF78FFDFFF779FDB868FFF78AFD9D
:100870000220FFF79FFDF868FFF784FDFFF76EFD8C
:10088000B868FFF77FFD0220FFF794FDF868FFF7D7
:1008900079FDFFF763FDB868FFF774FD0320FFF7EC
:1008A00089FDF868FFF76EFDFFF758FDB868FFF7A0
:1008B00069FD0420FFF77EFDF868FFF763FDFFF791
:1008C0004DFDB868FFF75EFD0520FFF773FDF86882
:1008D000FFF758FDFFF742FDB868FFF753FD03200F
:1008E000FFF768FDF868FFF74DFDFFF737FDB868C3
:1008F000FFF748FD0220FFF75DFDF868FFF742FDB6
:10090000FFF72CFDB868FFF73DFD0120FFF752FD12
:10091000F868FFF737FDFFF721FDB868FFF732FDF4
:100920004FF0FF30FFF746FDF868FFF72BFDFFF7AC
:1009300015FDB868FFF726FD4FF0FF30FFF73AFDD1
:10094000F868FFF71FFDFFF709FDB868FFF71AFD0C
:100950000220FFF72FFDF868FFF714FDFFF7FEFCFC
:10096000B868FFF70FFD0320FFF724FDF868FFF7D5
:1009700009FDFFF7F3FCB868FFF704FD0220FFF75D
:1009800019FDF868FFF7FEFCFFF7E8FCB868FFF711
:10099000F9FC0120FFF70EFDF868FFF7F3FCFFF705
:1009A000DDFCB868FFF7EEFC0120FFF703FDF868F7
:1009B000FFF7E8FCFFF7D2FCB868FFF7E3FC57E568
:1009C00080B483B000AF78600B46FB70FB78002BDF
:1009D00006D00949084B1A6B7B6813430B6306E08A
:1009E0000549054B1A6B7B68DB4313400B630C37DF
:1009F000BD465DF8047B70470038024080B483B088
:100A000000AF78600B46FB70FB78002B06D00949DD
:100A1000084B1A6C7B6813430B6406E00549054BD1
:100A20001A6C7B68DB4313400B640C37BD465DF8E2
:100A3000047B70470038024080B487B000AF786014
:100A4000396000237B6100233B610023FB600023AE
:100A50007B6176E07B69012202FA03F33B613B682C
:100A60001A683B691340FB60FA683B699A4265D19A
:100A70007B681A687B695B00194603238B40DB4364
:100A80001A407B681A607B681A683B681B791946B4
:100A90007B695B0001FA03F31A437B681A603B68C9
:100AA0001B79012B03D03B681B79022B2ED17B686D
:100AB0009A687B695B00194603238B40DB431A402D
:100AC0007B689A607B689A683B685B7919467B69AA
:100AD0005B0001FA03F31A437B689A607B685A68EB
:100AE0007B699BB2194601238B40DB431A407B682C
:100AF0005A607B685B683A68927911467A6992B26B
:100B000001FA02F292B21A437B685A607B68DA6893
:100B10007B699BB25B00032101FA03F3DB431A40BC
:100B20007B68DA607B68DA683B68DB7919467B6949
:100B30005B0001FA03F31A437B68DA607B690133D7
:100B40007B617B690F2B85D91C37BD465DF8047B23
:100B5000704700BF80B485B000AF78600B467B80E3
:100B600013467B700023FB600023BB607B787A8890
:100B700002F0070292009340FB607B88DB089BB287
:100B800018467B88DB089BB21A467B68083253F80C
:100B900022207B8803F007039B0019460F238B401C
:100BA000DB4302EA03017B6800F1080243F82210EC
:100BB0007B88DB089BB21A467B68083253F82220F8
:100BC000FB681343BB607B88DB089BB21A467B68DB
:100BD0000832B96843F822101437BD465DF8047B2B
:100BE000704700BF80B500AF114A114B1B6843F03E
:100BF000010313600E4B00229A600D4A0C4B1B68D8
:100C000023F0847323F480331360094B094A5A603C
:100C1000074A074B1B6823F480231360044B002210
:100C2000DA6000F087F8044B4FF000629A6080BDF4
:100C3000003802401030002400ED00E080B487B09E
:100C400000AF00233B6100237B610223FB60002394
:100C5000BB6002237B60324B9B6803F00C033B615B
:100C60003B69042B07D0082B09D0002B3FD12D4B1B
:100C70002D4A1A603FE02B4B2C4A1A603BE0284B70
:100C80005B6803F480039B0DBB60254B5B6803F03E
:100C90003F037B60BB68002B0DD0244A7B68B2FB0E
:100CA000F3F21F4B596847F6C0730B409B0903FBD7
:100CB00002F37B610CE01C4A7B68B2FBF3F2184B39
:100CC000596847F6C0730B409B0903FB02F37B6135
:100CD000134B5B6803F440331B0C01335B00FB6078
:100CE0007A69FB68B2FBF3F30E4A136003E00D4B25
:100CF0000D4A1A6000BF0A4B9B6803F0F0031B0902
:100D00000B4AD35CDBB23B61064B1A683B6922FAA3
:100D100003F3044A13601C37BD465DF8047B70473B
:100D200000380240000000200024F40040787D01DB
:100D30000400002080B483B000AF00237B60002358
:100D40003B60354A344B1B6843F480331360324BAD
:100D50001B6803F400333B607B6801337B603B68B6
:100D6000002B03D17B68B3F5A06FF0D12A4B1B6831
:100D700003F40033002B02D001233B6001E0002389
:100D80003B603B68012B42D1234A234B1B6C43F051
:100D900080531364214A214B1B6843F48043136042
:100DA0001D4A1D4B9B6893601B4A1B4B9B6843F479
:100DB00000439360184A184B9B6843F4A053936018
:100DC000154B174A5A60144A134B1B6843F0807343
:100DD000136000BF104B1B6803F00073002BF9D0A9
:100DE000104B40F205621A600B4A0B4B9B6823F0D4
:100DF00003039360084A084B9B6843F00203936027
:100E000000BF054B9B6803F00C03082BF9D10C378E
:100E1000BD465DF8047B704700380240007000401A
:100E200019544007003C024080B485B000AF7860A0
:100E300039600023FB817B681B88FB817B68284A23
:100E4000934213D07B68274A93420FD07B68B3F15B
:100E5000804F0BD07B68244A934207D07B68234A9B
:100E6000934203D07B68224A934208D1FB8923F046
:100E70007003FB813B685A88FB891343FB817B68C5
:100E80001C4A93420CD07B681B4A934208D0FB89D2
:100E900023F44073FB813B681A89FB891343FB8170
:100EA0007B68FA891A803B685A687B68DA623B681B
:100EB0001A887B681A857B68094A934203D07B684D
:100EC000084A934204D13B689B7A9AB27B681A869F
:100ED0007B6801229A821437BD465DF8047B704717
:100EE00000000140000401400004004000080040F0
:100EF000000C0040001000400014004080B483B09B
:100F000000AF78600B46FB70FB78002B08D07B6845
:100F10001B889BB243F080039AB27B681A8007E07B
:100F20007B681B889BB223F080039AB27B681A808F
:100F30000C37BD465DF8047B704700BF80B483B0BA
:100F400000AF78600B46FB70FB78002B08D07B6805
:100F50001B889BB243F001039AB27B681A8007E0BA
:100F60007B681B889BB223F001039AB27B681A80CE
:100F70000C37BD465DF8047B704700BF80B485B078
:100F800000AF7860396000237B810023FB81002360
:100F9000BB817B681B8C9BB223F001039AB27B68F8
:100FA0001A847B681B8CFB817B689B88BB817B6878
:100FB0001B8B7B817B8923F070037B817B8923F0F2
:100FC00003037B813B681A887B8913437B81FB8900
:100FD00023F00203FB813B689A89FB891343FB8161
:100FE0003B685A88FB891343FB817B681E4A934206
:100FF00003D07B681D4A934223D1FB8923F0080369
:10100000FB813B68DA89FB891343FB81FB8923F071
:101010000403FB813B689A88FB891343FB81BB89EE
:1010200023F48073BB81BB8923F40073BB813B68CD
:101030001A8ABB891343BB813B685A8ABB89134315
:10104000BB817B68BA899A807B687A891A833B68FE
:101050009A687B685A637B68FA891A841437BD469C
:101060005DF8047B704700BF0000014000040140B0
:1010700080B485B000AF78600B467B800023FB8195
:101080007B681B8BFB81FB8923F00803FB81FA89BA
:101090007B881343FB817B68FA891A831437BD462A
:0810A0005DF8047B704700BFFE
:1010A800007A030A000000000000000001020304A7
:0410B8000607080916
:0400000508000000EF
:00000001FF
