:020000040800F2
:100000000008002069020008C1020008C1020008BF
:10001000C1020008C1020008C1020008000000007F
:10002000000000000000000000000000C102000805
:10003000C102000800000000C1020008C10200085F
:10004000C1020008C1020008C1020008C102000884
:10005000C1020008C1020008C1020008C102000874
:10006000C1020008C1020008C1020008C102000864
:10007000C1020008C1020008C1020008C102000854
:10008000C1020008C1020008C1020008C102000844
:10009000C1020008C1020008C1020008C102000834
:1000A000C1020008C1020008C1020008C102000824
:1000B000C1020008C1020008C1020008C102000814
:1000C000C1020008C1020008C1020008C102000804
:1000D000C1020008C1020008C1020008C1020008F4
:1000E000C1020008C1020008C1020008C1020008E4
:1000F000C1020008C1020008C1020008C1020008D4
:10010000C1020008C1020008C1020008C1020008C3
:10011000C1020008C1020008C1020008C1020008B3
:10012000C1020008C1020008C1020008C1020008A3
:10013000C1020008C1020008C1020008C102000893
:10014000C1020008C1020008C1020008C102000883
:10015000C1020008C1020008C1020008C102000873
:10016000C1020008C1020008C1020008C102000863
:10017000C1020008C1020008C1020008C102000853
:10018000C1020008C102000880B485B000AF7860E9
:1001900039600023FB600023BB60134B1B68FB60CE
:1001A0007B6840F6FE7202FA03F3DB43FA68134001
:1001B000FB603B681A683B685B681A433B689B6856
:1001C0001A433B68DB681343BB607B68BA6802FA7A
:1001D00003F3FA681343FB60034AFB6813601437A8
:1001E000BD465DF8047B70470074004080B483B066
:1001F00000AF78600B46FB70FB78002B09D00C49F0
:100200000B4B1A687B68012000FA03F313430B6061
:1002100009E00749064B1A687B68012000FA03F3DE
:10022000DB4313400B600C37BD465DF8047B704721
:100230000074004080B485B000AF78600B467B80CE
:100240000023FB60074BFB60FA687B6813440833AC
:10025000FB60FB681A467B8813601437BD465DF867
:10026000047B70470074004080B582B000AF0F4B34
:100270007B600F4B3B6007E03B681A1D3A607A6871
:10028000111D796012681A603B680A4A9342F3D3E1
:1002900009480A494FF000028842B8BF40F8042BD1
:1002A000FADB00F05FF80837BD4680BD2406000881
:1002B00000000020000000200000002000000020BE
:1002C00080B400AFFEE700BF80B584B000AF04206B
:1002D000012100F071F81123BB608523BB8000234E
:1002E000BB810023FB803B1D0548194600F010F937
:1002F0000348012100F076F91037BD4680BD00BFEC
:100300000008004080B586B000AF0120012100F058
:1003100035F84FF00050012100F04EF810233B61FA
:1003200003233B7503237B750023FB7507F1100343
:100330000B48194600F05EF800233B6000237B6009
:100340000023BB600023FB603B4600201946FFF7FB
:100350001BFF00200121FFF749FF1837BD4680BD74
:100360000000024080B500AFFFF7AEFFFFF7CAFF05
:10037000002040F6FF71FFF75DFFF9E780B483B01E
:1003800000AF78600B46FB70FB78002B06D0094964
:10039000084B1A6B7B6813430B6306E00549054B5A
:1003A0001A6B7B68DB4313400B630C37BD465DF86B
:1003B000047B70470038024080B483B000AF78609F
:1003C0000B46FB70FB78002B06D00949084B1A6CD2
:1003D0007B6813430B6406E00549054B1A6C7B6888
:1003E000DB4313400B640C37BD465DF8047B70475C
:1003F0000038024080B487B000AF786039600023D5
:100400007B6100233B610023FB6000237B6176E07E
:100410007B69012202FA03F33B613B681A683B697E
:100420001340FB60FA683B699A4265D17B681A68A1
:100430007B695B00194603238B40DB431A407B68D2
:100440001A607B681A683B681B7919467B695B00F8
:1004500001FA03F31A437B681A603B681B79012B8E
:1004600003D03B681B79022B2ED17B689A687B698D
:100470005B00194603238B40DB431A407B689A607C
:100480007B689A683B685B7919467B695B0001FA77
:1004900003F31A437B689A607B685A687B699BB256
:1004A000194601238B40DB431A407B685A607B6806
:1004B0005B683A68927911467A6992B201FA02F25F
:1004C00092B21A437B685A607B68DA687B699BB298
:1004D0005B00032101FA03F3DB431A407B68DA6017
:1004E0007B68DA683B68DB7919467B695B0001FA57
:1004F00003F31A437B68DA607B6901337B617B69B4
:100500000F2B85D91C37BD465DF8047B704700BFB3
:1005100080B485B000AF786039600023FB817B68D0
:100520001B88FB817B68284A934213D07B68274A4B
:1005300093420FD07B68B3F1804F0BD07B68244A85
:10054000934207D07B68234A934203D07B68224AB8
:10055000934208D1FB8923F07003FB813B685A88E2
:10056000FB891343FB817B681C4A93420CD07B6858
:100570001B4A934208D0FB8923F44073FB813B68FC
:100580001A89FB891343FB817B68FA891A803B68CF
:100590005A687B68DA623B681A887B681A857B68D0
:1005A000094A934203D07B68084A934204D13B68CE
:1005B0009B7A9AB27B681A867B6801229A821437EA
:1005C000BD465DF8047B7047000001400004014017
:1005D0000004004000080040000C004000100040F3
:1005E0000014004080B483B000AF78600B46FB700D
:1005F000FB78002B08D07B681B889BB243F001037B
:100600009AB27B681A8007E07B681B889BB223F054
:1006100001039AB27B681A800C37BD465DF8047BF3
:04062000704700BF60
:0400000508000000EF
:00000001FF
